{"abi":[{"type":"function","name":"addLiquidity","inputs":[{"name":"poolId","type":"bytes32","internalType":"bytes32"},{"name":"tick1","type":"uint256","internalType":"uint256"},{"name":"tick2","type":"uint256","internalType":"uint256"},{"name":"amount","type":"uint128","internalType":"uint128"},{"name":"isToken0","type":"bool","internalType":"bool"}],"outputs":[],"stateMutability":"nonpayable"},{"type":"function","name":"collectFees","inputs":[{"name":"poolId","type":"bytes32","internalType":"bytes32"}],"outputs":[],"stateMutability":"nonpayable"},{"type":"function","name":"createPool","inputs":[{"name":"token0","type":"address","internalType":"address"},{"name":"token1","type":"address","internalType":"address"}],"outputs":[{"name":"poolId","type":"bytes32","internalType":"bytes32"}],"stateMutability":"nonpayable"},{"type":"function","name":"feePercent","inputs":[],"outputs":[{"name":"","type":"uint256","internalType":"uint256"}],"stateMutability":"view"},{"type":"function","name":"getAllPools","inputs":[],"outputs":[{"name":"ids","type":"bytes32[]","internalType":"bytes32[]"},{"name":"token0Addresses","type":"address[]","internalType":"address[]"},{"name":"token1Addresses","type":"address[]","internalType":"address[]"},{"name":"totalLiquidity0s","type":"uint256[]","internalType":"uint256[]"},{"name":"totalLiquidity1s","type":"uint256[]","internalType":"uint256[]"}],"stateMutability":"view"},{"type":"function","name":"getLiquidityConcentration","inputs":[{"name":"poolId","type":"bytes32","internalType":"bytes32"},{"name":"isToken0","type":"bool","internalType":"bool"}],"outputs":[{"name":"ticks","type":"uint256[]","internalType":"uint256[]"},{"name":"concentrations","type":"int256[]","internalType":"int256[]"}],"stateMutability":"view"},{"type":"function","name":"getPool","inputs":[{"name":"poolId","type":"bytes32","internalType":"bytes32"}],"outputs":[{"name":"totalLiquidity0","type":"uint256","internalType":"uint256"},{"name":"totalLiquidity1","type":"uint256","internalType":"uint256"},{"name":"feeGrowthGlobal0","type":"uint256","internalType":"uint256"},{"name":"feeGrowthGlobal1","type":"uint256","internalType":"uint256"},{"name":"token0","type":"address","internalType":"address"},{"name":"token1","type":"address","internalType":"address"}],"stateMutability":"view"},{"type":"function","name":"getPoolIds","inputs":[],"outputs":[{"name":"","type":"bytes32[]","internalType":"bytes32[]"}],"stateMutability":"view"},{"type":"function","name":"poolIds","inputs":[{"name":"","type":"uint256","internalType":"uint256"}],"outputs":[{"name":"","type":"bytes32","internalType":"bytes32"}],"stateMutability":"view"},{"type":"function","name":"pools","inputs":[{"name":"","type":"bytes32","internalType":"bytes32"}],"outputs":[{"name":"totalLiquidity0","type":"uint256","internalType":"uint256"},{"name":"totalLiquidity1","type":"uint256","internalType":"uint256"},{"name":"feeGrowthGlobal0","type":"uint256","internalType":"uint256"},{"name":"feeGrowthGlobal1","type":"uint256","internalType":"uint256"},{"name":"token0","type":"address","internalType":"address"},{"name":"token1","type":"address","internalType":"address"}],"stateMutability":"view"},{"type":"function","name":"removeLiquidity","inputs":[{"name":"poolId","type":"bytes32","internalType":"bytes32"},{"name":"amount","type":"uint128","internalType":"uint128"},{"name":"isToken0","type":"bool","internalType":"bool"}],"outputs":[],"stateMutability":"nonpayable"},{"type":"function","name":"swap","inputs":[{"name":"poolId","type":"bytes32","internalType":"bytes32"},{"name":"amountIn","type":"uint256","internalType":"uint256"},{"name":"zeroForOne","type":"bool","internalType":"bool"}],"outputs":[],"stateMutability":"nonpayable"}],"bytecode":{"object":"0x6080604052610bb860025534801561001657600080fd5b50611b12806100266000396000f3fe608060405234801561001057600080fd5b50600436106100b45760003560e01c8063b4f2bb6d11610071578063b4f2bb6d14610146578063b5217bb41461015b578063bac49e7014610180578063d88ff1f414610193578063e3433615146101ac578063f6c00927146101bf576100b4565b806303f1f074146100b95780633a6aef5a146100e357806369883b4e146100f85780637fd6f15c14610118578063817db73b14610120578063a0eb0c6014610133575b600080fd5b6100cc6100c736600461158c565b6101d2565b6040516100da92919061181e565b60405180910390f35b6100f66100f13660046115bb565b610466565b005b61010b610106366004611574565b6107d1565b6040516100da9190611874565b61010b6107f2565b6100f661012e366004611574565b6107f8565b6100f6610141366004611627565b61098f565b61014e610d15565b6040516100da919061179e565b61016e610169366004611574565b610d6d565b6040516100da96959493929190611925565b6100f661018e3660046115fa565b610db2565b61019b611092565b6040516100da9594939291906117b1565b61010b6101ba36600461151f565b6113cf565b61016e6101cd366004611574565b6114a5565b60008281526020819052604080822081516103e8808252617d2082019093526060938493909182918160200160208202803683375050604080516103e8808252617d208201909252929350600092915060208201617d008036833701905050905060005b6103e88110156102ef5760008861025d57600082815260018701602052604090205461026d565b6000828152602087905260409020545b905080156102dc578184868151811061029657634e487b7160e01b600052603260045260246000fd5b602002602001018181525050808386815181106102c357634e487b7160e01b600052603260045260246000fd5b6020908102919091010152846102d881611a9a565b9550505b50806102e781611a9a565b915050610236565b508267ffffffffffffffff81111561031757634e487b7160e01b600052604160045260246000fd5b604051908082528060200260200182016040528015610340578160200160208202803683370190505b5095508267ffffffffffffffff81111561036a57634e487b7160e01b600052604160045260246000fd5b604051908082528060200260200182016040528015610393578160200160208202803683370190505b50945060005b8381101561045a578281815181106103c157634e487b7160e01b600052603260045260246000fd5b60200260200101518782815181106103e957634e487b7160e01b600052603260045260246000fd5b60200260200101818152505081818151811061041557634e487b7160e01b600052603260045260246000fd5b602002602001015186828151811061043d57634e487b7160e01b600052603260045260246000fd5b60209081029190910101528061045281611a9a565b915050610399565b50505050509250929050565b6000838152602081815260408083203384526004810190925290912080546001600160801b03808616911610156104b85760405162461bcd60e51b81526004016104af9061187d565b60405180910390fd5b6000816001015482600201546104ce9190611a83565b6104d99060016119c5565b905060006104f0826001600160801b0388166119dd565b905084156105ec57600183015460009081526002850160205260408120805483929061051d908490611a1c565b92505081905550808460020160008560020154600161053c91906119c5565b8152602001908152602001600020600001600082825461055c9190611959565b92505081905550856001600160801b03168460050160008282546105809190611a83565b90915550506001830154600090815260208590526040812080548392906105a8908490611a1c565b90915550506002830154819085906000906105c49060016119c5565b815260200190815260200160002060008282546105e19190611959565b909155506106e09050565b6001830154600090815260038501602052604081208054839290610611908490611a1c565b92505081905550808460030160008560020154600161063091906119c5565b815260200190815260200160002060000160008282546106509190611959565b92505081905550856001600160801b03168460060160008282546106749190611a83565b9091555050600183810154600090815290850160205260408120805483929061069e908490611a1c565b9250508190555080846001016000856002015460016106bd91906119c5565b815260200190815260200160002060008282546106da9190611959565b90915550505b8254869084906000906106fd9084906001600160801b0316611a5b565b92506101000a8154816001600160801b0302191690836001600160801b031602179055508461073957600a8401546001600160a01b0316610748565b60098401546001600160a01b03165b6001600160a01b031663a9059cbb33886040518363ffffffff1660e01b8152600401610775929190611763565b602060405180830381600087803b15801561078f57600080fd5b505af11580156107a3573d6000803e3d6000fd5b505050506040513d601f19601f820116820180604052508101906107c79190611551565b5050505050505050565b600181815481106107e157600080fd5b600091825260209091200154905081565b60025481565b6000818152602081815260408083203384526004810190925282206005820154600783015482549394929361083691906001600160801b03166119fd565b61084091906119dd565b60068401546008850154845492935060009261086591906001600160801b03166119fd565b61086f91906119dd565b60078501546003850155600985015460405163a9059cbb60e01b81529192506001600160a01b03169063a9059cbb906108ae9033908690600401611785565b602060405180830381600087803b1580156108c857600080fd5b505af11580156108dc573d6000803e3d6000fd5b505050506040513d601f19601f820116820180604052508101906109009190611551565b50600a84015460405163a9059cbb60e01b81526001600160a01b039091169063a9059cbb906109359033908590600401611785565b602060405180830381600087803b15801561094f57600080fd5b505af1158015610963573d6000803e3d6000fd5b505050506040513d601f19601f820116820180604052508101906109879190611551565b505050505050565b8284106109ae5760405162461bcd60e51b81526004016104af906118fe565b6000858152602081905260408120906109c78686611a83565b6109d29060016119c5565b9050600081116109f45760405162461bcd60e51b81526004016104af906118d7565b6000816001610a0c826001600160801b0389166119c5565b610a169190611a83565b610a2091906119dd565b90508315610b0457600087815260028401602052604081208054839290610a48908490611959565b90915550819050600284016000610a608960016119c5565b81526020019081526020016000206000016000828254610a809190611a1c565b92505081905550846001600160801b0316836005016000828254610aa491906119c5565b909155505060008781526020849052604081208054839290610ac7908490611959565b90915550819050836000610adc8960016119c5565b81526020019081526020016000206000828254610af99190611a1c565b90915550610be39050565b600087815260038401602052604081208054839290610b24908490611959565b90915550819050600384016000610b3c8960016119c5565b81526020019081526020016000206000016000828254610b5c9190611a1c565b92505081905550846001600160801b0316836006016000828254610b8091906119c5565b9091555050600087815260018401602052604081208054839290610ba5908490611959565b9250508190555080836001016000886001610bc091906119c5565b81526020019081526020016000206000828254610bdd9190611a1c565b90915550505b3360009081526004840160205260408120805490918791839190610c119084906001600160801b031661199a565b92506101000a8154816001600160801b0302191690836001600160801b0316021790555087816001018190555086816002018190555084610c56578360080154610c5c565b83600701545b600382015584610c7957600a8401546001600160a01b0316610c88565b60098401546001600160a01b03165b6001600160a01b03166323b872dd3330896040518463ffffffff1660e01b8152600401610cb793929190611713565b602060405180830381600087803b158015610cd157600080fd5b505af1158015610ce5573d6000803e3d6000fd5b505050506040513d601f19601f82011682018060405250810190610d099190611551565b50505050505050505050565b60606001805480602002602001604051908101604052809291908181526020018280548015610d6357602002820191906000526020600020905b815481526020019060010190808311610d4f575b5050505050905090565b600060208190529081526040902060058101546006820154600783015460088401546009850154600a9095015493949293919290916001600160a01b03918216911686565b60008381526020819052604081209082610dd957600a8201546001600160a01b0316610de8565b60098201546001600160a01b03165b9050600083610e045760098301546001600160a01b0316610e13565b600a8301546001600160a01b03165b90506000620f424060025487610e2991906119fd565b610e3391906119dd565b90506000610e418288611a83565b9050600086610e54578560060154610e5a565b85600501545b9050600087610e6d578660050154610e73565b86600601545b9050600082118015610e855750600081115b610ea15760405162461bcd60e51b81526004016104af9061187d565b600082610eae83866119fd565b610eb891906119dd565b90508815610f23576005880154610ecf90866119dd565b886007016000828254610ee291906119c5565b9250508190555089886005016000828254610efd91906119c5565b9250508190555080886006016000828254610f189190611a83565b90915550610f819050565b6006880154610f3290866119dd565b886008016000828254610f4591906119c5565b9250508190555089886006016000828254610f6091906119c5565b9250508190555080886005016000828254610f7b9190611a83565b90915550505b6040516323b872dd60e01b81526001600160a01b038816906323b872dd90610fb190339030908f9060040161173f565b602060405180830381600087803b158015610fcb57600080fd5b505af1158015610fdf573d6000803e3d6000fd5b505050506040513d601f19601f820116820180604052508101906110039190611551565b5060405163a9059cbb60e01b81526001600160a01b0387169063a9059cbb906110329033908590600401611785565b602060405180830381600087803b15801561104c57600080fd5b505af1158015611060573d6000803e3d6000fd5b505050506040513d601f19601f820116820180604052508101906110849190611551565b505050505050505050505050565b60015460609081908190819081908067ffffffffffffffff8111156110c757634e487b7160e01b600052604160045260246000fd5b6040519080825280602002602001820160405280156110f0578160200160208202803683370190505b5095508067ffffffffffffffff81111561111a57634e487b7160e01b600052604160045260246000fd5b604051908082528060200260200182016040528015611143578160200160208202803683370190505b5094508067ffffffffffffffff81111561116d57634e487b7160e01b600052604160045260246000fd5b604051908082528060200260200182016040528015611196578160200160208202803683370190505b5093508067ffffffffffffffff8111156111c057634e487b7160e01b600052604160045260246000fd5b6040519080825280602002602001820160405280156111e9578160200160208202803683370190505b5092508067ffffffffffffffff81111561121357634e487b7160e01b600052604160045260246000fd5b60405190808252806020026020018201604052801561123c578160200160208202803683370190505b50915060005b818110156113c65760006001828154811061126d57634e487b7160e01b600052603260045260246000fd5b9060005260206000200154905060008060008381526020019081526020016000209050818984815181106112b157634e487b7160e01b600052603260045260246000fd5b6020908102919091010152600981015488516001600160a01b03909116908990859081106112ef57634e487b7160e01b600052603260045260246000fd5b6001600160a01b039283166020918202929092010152600a820154885191169088908590811061132f57634e487b7160e01b600052603260045260246000fd5b60200260200101906001600160a01b031690816001600160a01b031681525050806005015486848151811061137457634e487b7160e01b600052603260045260246000fd5b60200260200101818152505080600601548584815181106113a557634e487b7160e01b600052603260045260246000fd5b602002602001018181525050505080806113be90611a9a565b915050611242565b50509091929394565b6000816001600160a01b0316836001600160a01b031614156114035760405162461bcd60e51b81526004016104af906118ad565b82826040516020016114169291906116ec565b60408051601f1981840301815291815281516020928301206000818152928390529082206009810180546001600160a01b039788166001600160a01b031991821617909155600a9091018054959096169416939093179093555060018054808201825592527fb10e2d527612073b26eecdfd717e6a320cf44b4afac2b0732d9fcbe2b7fa0cf690910181905590565b600090815260208190526040902060058101546006820154600783015460088401546009850154600a9095015493959294919390926001600160a01b039283169290911690565b80356001600160a01b038116811461150357600080fd5b919050565b80356001600160801b038116811461150357600080fd5b60008060408385031215611531578182fd5b61153a836114ec565b9150611548602084016114ec565b90509250929050565b600060208284031215611562578081fd5b815161156d81611acb565b9392505050565b600060208284031215611585578081fd5b5035919050565b6000806040838503121561159e578182fd5b8235915060208301356115b081611acb565b809150509250929050565b6000806000606084860312156115cf578081fd5b833592506115df60208501611508565b915060408401356115ef81611acb565b809150509250925092565b60008060006060848603121561160e578283fd5b833592506020840135915060408401356115ef81611acb565b600080600080600060a0868803121561163e578081fd5b85359450602086013593506040860135925061165c60608701611508565b9150608086013561166c81611acb565b809150509295509295909350565b6000815180845260208085019450808401835b838110156116b25781516001600160a01b03168752958201959082019060010161168d565b509495945050505050565b6000815180845260208085019450808401835b838110156116b2578151875295820195908201906001016116d0565b6bffffffffffffffffffffffff19606093841b811682529190921b16601482015260280190565b6001600160a01b0393841681529190921660208201526001600160801b03909116604082015260600190565b6001600160a01b039384168152919092166020820152604081019190915260600190565b6001600160a01b039290921682526001600160801b0316602082015260400190565b6001600160a01b03929092168252602082015260400190565b60006020825261156d60208301846116bd565b600060a082526117c460a08301886116bd565b82810360208401526117d6818861167a565b905082810360408401526117ea818761167a565b905082810360608401526117fe81866116bd565b9050828103608084015261181281856116bd565b98975050505050505050565b60006040825261183160408301856116bd565b828103602084810191909152845180835285820192820190845b818110156118675784518352938301939183019160010161184b565b5090979650505050505050565b90815260200190565b602080825260169082015275496e73756666696369656e74206c697175696469747960501b604082015260600190565b60208082526010908201526f4964656e746963616c20746f6b656e7360801b604082015260600190565b6020808252600d908201526c496e76616c69642052616e676560981b604082015260600190565b6020808252600d908201526c496e76616c6964207469636b7360981b604082015260600190565b9586526020860194909452604085019290925260608401526001600160a01b0390811660808401521660a082015260c00190565b600080821280156001600160ff1b038490038513161561197b5761197b611ab5565b600160ff1b839003841281161561199457611994611ab5565b50500190565b60006001600160801b038083168185168083038211156119bc576119bc611ab5565b01949350505050565b600082198211156119d8576119d8611ab5565b500190565b6000826119f857634e487b7160e01b81526012600452602481fd5b500490565b6000816000190483118215151615611a1757611a17611ab5565b500290565b60008083128015600160ff1b850184121615611a3a57611a3a611ab5565b6001600160ff1b0384018313811615611a5557611a55611ab5565b50500390565b60006001600160801b0383811690831681811015611a7b57611a7b611ab5565b039392505050565b600082821015611a9557611a95611ab5565b500390565b6000600019821415611aae57611aae611ab5565b5060010190565b634e487b7160e01b600052601160045260246000fd5b8015158114611ad957600080fd5b5056fea26469706673582212207d9fd819751cb4ffcbaf376f2e27c97b539190ed1ad5c5f2f5649790ff05dc8164736f6c63430008000033","linkReferences":{}},"methodIdentifiers":{"addLiquidity(bytes32,uint256,uint256,uint128,bool)":"a0eb0c60","collectFees(bytes32)":"817db73b","createPool(address,address)":"e3433615","feePercent()":"7fd6f15c","getAllPools()":"d88ff1f4","getLiquidityConcentration(bytes32,bool)":"03f1f074","getPool(bytes32)":"f6c00927","getPoolIds()":"b4f2bb6d","poolIds(uint256)":"69883b4e","pools(bytes32)":"b5217bb4","removeLiquidity(bytes32,uint128,bool)":"3a6aef5a","swap(bytes32,uint256,bool)":"bac49e70"},"id":26}