{"abi":[{"type":"function","name":"addLiquidity","inputs":[{"name":"poolId","type":"bytes32","internalType":"bytes32"},{"name":"tick1","type":"uint256","internalType":"uint256"},{"name":"tick2","type":"uint256","internalType":"uint256"},{"name":"amount","type":"uint128","internalType":"uint128"},{"name":"isToken0","type":"bool","internalType":"bool"}],"outputs":[],"stateMutability":"nonpayable"},{"type":"function","name":"collectFees","inputs":[{"name":"poolId","type":"bytes32","internalType":"bytes32"}],"outputs":[],"stateMutability":"nonpayable"},{"type":"function","name":"createPool","inputs":[{"name":"token0","type":"address","internalType":"address"},{"name":"token1","type":"address","internalType":"address"}],"outputs":[{"name":"poolId","type":"bytes32","internalType":"bytes32"}],"stateMutability":"nonpayable"},{"type":"function","name":"feePercent","inputs":[],"outputs":[{"name":"","type":"uint256","internalType":"uint256"}],"stateMutability":"view"},{"type":"function","name":"getAllPools","inputs":[],"outputs":[{"name":"ids","type":"bytes32[]","internalType":"bytes32[]"},{"name":"token0Addresses","type":"address[]","internalType":"address[]"},{"name":"token1Addresses","type":"address[]","internalType":"address[]"},{"name":"totalLiquidity0s","type":"uint256[]","internalType":"uint256[]"},{"name":"totalLiquidity1s","type":"uint256[]","internalType":"uint256[]"}],"stateMutability":"view"},{"type":"function","name":"getLiquidityConcentration","inputs":[{"name":"poolId","type":"bytes32","internalType":"bytes32"},{"name":"isToken0","type":"bool","internalType":"bool"}],"outputs":[{"name":"ticks","type":"uint256[]","internalType":"uint256[]"},{"name":"concentrations","type":"int256[]","internalType":"int256[]"}],"stateMutability":"view"},{"type":"function","name":"getPool","inputs":[{"name":"poolId","type":"bytes32","internalType":"bytes32"}],"outputs":[{"name":"totalLiquidity0","type":"uint256","internalType":"uint256"},{"name":"totalLiquidity1","type":"uint256","internalType":"uint256"},{"name":"feeGrowthGlobal0","type":"uint256","internalType":"uint256"},{"name":"feeGrowthGlobal1","type":"uint256","internalType":"uint256"},{"name":"token0","type":"address","internalType":"address"},{"name":"token1","type":"address","internalType":"address"}],"stateMutability":"view"},{"type":"function","name":"getPoolIds","inputs":[],"outputs":[{"name":"","type":"bytes32[]","internalType":"bytes32[]"}],"stateMutability":"view"},{"type":"function","name":"poolIds","inputs":[{"name":"","type":"uint256","internalType":"uint256"}],"outputs":[{"name":"","type":"bytes32","internalType":"bytes32"}],"stateMutability":"view"},{"type":"function","name":"pools","inputs":[{"name":"","type":"bytes32","internalType":"bytes32"}],"outputs":[{"name":"totalLiquidity0","type":"uint256","internalType":"uint256"},{"name":"totalLiquidity1","type":"uint256","internalType":"uint256"},{"name":"feeGrowthGlobal0","type":"uint256","internalType":"uint256"},{"name":"feeGrowthGlobal1","type":"uint256","internalType":"uint256"},{"name":"token0","type":"address","internalType":"address"},{"name":"token1","type":"address","internalType":"address"}],"stateMutability":"view"},{"type":"function","name":"removeLiquidity","inputs":[{"name":"poolId","type":"bytes32","internalType":"bytes32"},{"name":"amount","type":"uint128","internalType":"uint128"},{"name":"isToken0","type":"bool","internalType":"bool"}],"outputs":[],"stateMutability":"nonpayable"},{"type":"function","name":"swap","inputs":[{"name":"poolId","type":"bytes32","internalType":"bytes32"},{"name":"amountIn","type":"uint256","internalType":"uint256"},{"name":"zeroForOne","type":"bool","internalType":"bool"}],"outputs":[],"stateMutability":"nonpayable"}],"bytecode":{"object":"0x6080604052610bb8600255600060035534801561001b57600080fd5b50611b328061002b6000396000f3fe608060405234801561001057600080fd5b50600436106100b45760003560e01c8063b4f2bb6d11610071578063b4f2bb6d14610146578063b5217bb41461015b578063bac49e7014610180578063d88ff1f414610193578063e3433615146101ac578063f6c00927146101bf576100b4565b806303f1f074146100b95780633a6aef5a146100e357806369883b4e146100f85780637fd6f15c14610118578063817db73b14610120578063a0eb0c6014610133575b600080fd5b6100cc6100c73660046115a5565b6101d2565b6040516100da92919061183e565b60405180910390f35b6100f66100f13660046115d4565b610466565b005b61010b61010636600461158d565b6107d1565b6040516100da9190611894565b61010b6107f2565b6100f661012e36600461158d565b6107f8565b6100f6610141366004611640565b61098f565b61014e610d15565b6040516100da91906117be565b61016e61016936600461158d565b610d6d565b6040516100da96959493929190611945565b6100f661018e366004611613565b610db2565b61019b611092565b6040516100da9594939291906117d1565b61010b6101ba366004611538565b6113cf565b61016e6101cd36600461158d565b6114be565b60008281526020819052604080822081516103e8808252617d2082019093526060938493909182918160200160208202803683375050604080516103e8808252617d208201909252929350600092915060208201617d008036833701905050905060005b6103e88110156102ef5760008861025d57600082815260018701602052604090205461026d565b6000828152602087905260409020545b905080156102dc578184868151811061029657634e487b7160e01b600052603260045260246000fd5b602002602001018181525050808386815181106102c357634e487b7160e01b600052603260045260246000fd5b6020908102919091010152846102d881611aba565b9550505b50806102e781611aba565b915050610236565b508267ffffffffffffffff81111561031757634e487b7160e01b600052604160045260246000fd5b604051908082528060200260200182016040528015610340578160200160208202803683370190505b5095508267ffffffffffffffff81111561036a57634e487b7160e01b600052604160045260246000fd5b604051908082528060200260200182016040528015610393578160200160208202803683370190505b50945060005b8381101561045a578281815181106103c157634e487b7160e01b600052603260045260246000fd5b60200260200101518782815181106103e957634e487b7160e01b600052603260045260246000fd5b60200260200101818152505081818151811061041557634e487b7160e01b600052603260045260246000fd5b602002602001015186828151811061043d57634e487b7160e01b600052603260045260246000fd5b60209081029190910101528061045281611aba565b915050610399565b50505050509250929050565b6000838152602081815260408083203384526004810190925290912080546001600160801b03808616911610156104b85760405162461bcd60e51b81526004016104af9061189d565b60405180910390fd5b6000816001015482600201546104ce9190611aa3565b6104d99060016119e5565b905060006104f0826001600160801b0388166119fd565b905084156105ec57600183015460009081526002850160205260408120805483929061051d908490611a3c565b92505081905550808460020160008560020154600161053c91906119e5565b8152602001908152602001600020600001600082825461055c9190611979565b92505081905550856001600160801b03168460050160008282546105809190611aa3565b90915550506001830154600090815260208590526040812080548392906105a8908490611a3c565b90915550506002830154819085906000906105c49060016119e5565b815260200190815260200160002060008282546105e19190611979565b909155506106e09050565b6001830154600090815260038501602052604081208054839290610611908490611a3c565b92505081905550808460030160008560020154600161063091906119e5565b815260200190815260200160002060000160008282546106509190611979565b92505081905550856001600160801b03168460060160008282546106749190611aa3565b9091555050600183810154600090815290850160205260408120805483929061069e908490611a3c565b9250508190555080846001016000856002015460016106bd91906119e5565b815260200190815260200160002060008282546106da9190611979565b90915550505b8254869084906000906106fd9084906001600160801b0316611a7b565b92506101000a8154816001600160801b0302191690836001600160801b031602179055508461073957600a8401546001600160a01b0316610748565b60098401546001600160a01b03165b6001600160a01b031663a9059cbb33886040518363ffffffff1660e01b8152600401610775929190611783565b602060405180830381600087803b15801561078f57600080fd5b505af11580156107a3573d6000803e3d6000fd5b505050506040513d601f19601f820116820180604052508101906107c7919061156a565b5050505050505050565b600181815481106107e157600080fd5b600091825260209091200154905081565b60025481565b6000818152602081815260408083203384526004810190925282206005820154600783015482549394929361083691906001600160801b0316611a1d565b61084091906119fd565b60068401546008850154845492935060009261086591906001600160801b0316611a1d565b61086f91906119fd565b60078501546003850155600985015460405163a9059cbb60e01b81529192506001600160a01b03169063a9059cbb906108ae90339086906004016117a5565b602060405180830381600087803b1580156108c857600080fd5b505af11580156108dc573d6000803e3d6000fd5b505050506040513d601f19601f82011682018060405250810190610900919061156a565b50600a84015460405163a9059cbb60e01b81526001600160a01b039091169063a9059cbb9061093590339085906004016117a5565b602060405180830381600087803b15801561094f57600080fd5b505af1158015610963573d6000803e3d6000fd5b505050506040513d601f19601f82011682018060405250810190610987919061156a565b505050505050565b8284106109ae5760405162461bcd60e51b81526004016104af9061191e565b6000858152602081905260408120906109c78686611aa3565b6109d29060016119e5565b9050600081116109f45760405162461bcd60e51b81526004016104af906118f7565b6000816001610a0c826001600160801b0389166119e5565b610a169190611aa3565b610a2091906119fd565b90508315610b0457600087815260028401602052604081208054839290610a48908490611979565b90915550819050600284016000610a608960016119e5565b81526020019081526020016000206000016000828254610a809190611a3c565b92505081905550846001600160801b0316836005016000828254610aa491906119e5565b909155505060008781526020849052604081208054839290610ac7908490611979565b90915550819050836000610adc8960016119e5565b81526020019081526020016000206000828254610af99190611a3c565b90915550610be39050565b600087815260038401602052604081208054839290610b24908490611979565b90915550819050600384016000610b3c8960016119e5565b81526020019081526020016000206000016000828254610b5c9190611a3c565b92505081905550846001600160801b0316836006016000828254610b8091906119e5565b9091555050600087815260018401602052604081208054839290610ba5908490611979565b9250508190555080836001016000886001610bc091906119e5565b81526020019081526020016000206000828254610bdd9190611a3c565b90915550505b3360009081526004840160205260408120805490918791839190610c119084906001600160801b03166119ba565b92506101000a8154816001600160801b0302191690836001600160801b0316021790555087816001018190555086816002018190555084610c56578360080154610c5c565b83600701545b600382015584610c7957600a8401546001600160a01b0316610c88565b60098401546001600160a01b03165b6001600160a01b03166323b872dd3330896040518463ffffffff1660e01b8152600401610cb793929190611733565b602060405180830381600087803b158015610cd157600080fd5b505af1158015610ce5573d6000803e3d6000fd5b505050506040513d601f19601f82011682018060405250810190610d09919061156a565b50505050505050505050565b60606001805480602002602001604051908101604052809291908181526020018280548015610d6357602002820191906000526020600020905b815481526020019060010190808311610d4f575b5050505050905090565b600060208190529081526040902060058101546006820154600783015460088401546009850154600a9095015493949293919290916001600160a01b03918216911686565b60008381526020819052604081209082610dd957600a8201546001600160a01b0316610de8565b60098201546001600160a01b03165b9050600083610e045760098301546001600160a01b0316610e13565b600a8301546001600160a01b03165b90506000620f424060025487610e299190611a1d565b610e3391906119fd565b90506000610e418288611aa3565b9050600086610e54578560060154610e5a565b85600501545b9050600087610e6d578660050154610e73565b86600601545b9050600082118015610e855750600081115b610ea15760405162461bcd60e51b81526004016104af9061189d565b600082610eae8386611a1d565b610eb891906119fd565b90508815610f23576005880154610ecf90866119fd565b886007016000828254610ee291906119e5565b9250508190555089886005016000828254610efd91906119e5565b9250508190555080886006016000828254610f189190611aa3565b90915550610f819050565b6006880154610f3290866119fd565b886008016000828254610f4591906119e5565b9250508190555089886006016000828254610f6091906119e5565b9250508190555080886005016000828254610f7b9190611aa3565b90915550505b6040516323b872dd60e01b81526001600160a01b038816906323b872dd90610fb190339030908f9060040161175f565b602060405180830381600087803b158015610fcb57600080fd5b505af1158015610fdf573d6000803e3d6000fd5b505050506040513d601f19601f82011682018060405250810190611003919061156a565b5060405163a9059cbb60e01b81526001600160a01b0387169063a9059cbb9061103290339085906004016117a5565b602060405180830381600087803b15801561104c57600080fd5b505af1158015611060573d6000803e3d6000fd5b505050506040513d601f19601f82011682018060405250810190611084919061156a565b505050505050505050505050565b60015460609081908190819081908067ffffffffffffffff8111156110c757634e487b7160e01b600052604160045260246000fd5b6040519080825280602002602001820160405280156110f0578160200160208202803683370190505b5095508067ffffffffffffffff81111561111a57634e487b7160e01b600052604160045260246000fd5b604051908082528060200260200182016040528015611143578160200160208202803683370190505b5094508067ffffffffffffffff81111561116d57634e487b7160e01b600052604160045260246000fd5b604051908082528060200260200182016040528015611196578160200160208202803683370190505b5093508067ffffffffffffffff8111156111c057634e487b7160e01b600052604160045260246000fd5b6040519080825280602002602001820160405280156111e9578160200160208202803683370190505b5092508067ffffffffffffffff81111561121357634e487b7160e01b600052604160045260246000fd5b60405190808252806020026020018201604052801561123c578160200160208202803683370190505b50915060005b818110156113c65760006001828154811061126d57634e487b7160e01b600052603260045260246000fd5b9060005260206000200154905060008060008381526020019081526020016000209050818984815181106112b157634e487b7160e01b600052603260045260246000fd5b6020908102919091010152600981015488516001600160a01b03909116908990859081106112ef57634e487b7160e01b600052603260045260246000fd5b6001600160a01b039283166020918202929092010152600a820154885191169088908590811061132f57634e487b7160e01b600052603260045260246000fd5b60200260200101906001600160a01b031690816001600160a01b031681525050806005015486848151811061137457634e487b7160e01b600052603260045260246000fd5b60200260200101818152505080600601548584815181106113a557634e487b7160e01b600052603260045260246000fd5b602002602001018181525050505080806113be90611aba565b915050611242565b50509091929394565b6000816001600160a01b0316836001600160a01b031614156114035760405162461bcd60e51b81526004016104af906118cd565b828260035460405160200161141a93929190611705565b60408051601f1981840301815291815281516020928301206000818152928390529082206009810180546001600160a01b038089166001600160a01b031992831617909255600a9092018054918716919092161790556001805480820182559083527fb10e2d527612073b26eecdfd717e6a320cf44b4afac2b0732d9fcbe2b7fa0cf6018190556003805491935090916114b383611aba565b919050555092915050565b600090815260208190526040902060058101546006820154600783015460088401546009850154600a9095015493959294919390926001600160a01b039283169290911690565b80356001600160a01b038116811461151c57600080fd5b919050565b80356001600160801b038116811461151c57600080fd5b6000806040838503121561154a578182fd5b61155383611505565b915061156160208401611505565b90509250929050565b60006020828403121561157b578081fd5b815161158681611aeb565b9392505050565b60006020828403121561159e578081fd5b5035919050565b600080604083850312156115b7578182fd5b8235915060208301356115c981611aeb565b809150509250929050565b6000806000606084860312156115e8578081fd5b833592506115f860208501611521565b9150604084013561160881611aeb565b809150509250925092565b600080600060608486031215611627578283fd5b8335925060208401359150604084013561160881611aeb565b600080600080600060a08688031215611657578081fd5b85359450602086013593506040860135925061167560608701611521565b9150608086013561168581611aeb565b809150509295509295909350565b6000815180845260208085019450808401835b838110156116cb5781516001600160a01b0316875295820195908201906001016116a6565b509495945050505050565b6000815180845260208085019450808401835b838110156116cb578151875295820195908201906001016116e9565b6bffffffffffffffffffffffff19606094851b811682529290931b9091166014830152602882015260480190565b6001600160a01b0393841681529190921660208201526001600160801b03909116604082015260600190565b6001600160a01b039384168152919092166020820152604081019190915260600190565b6001600160a01b039290921682526001600160801b0316602082015260400190565b6001600160a01b03929092168252602082015260400190565b60006020825261158660208301846116d6565b600060a082526117e460a08301886116d6565b82810360208401526117f68188611693565b9050828103604084015261180a8187611693565b9050828103606084015261181e81866116d6565b9050828103608084015261183281856116d6565b98975050505050505050565b60006040825261185160408301856116d6565b828103602084810191909152845180835285820192820190845b818110156118875784518352938301939183019160010161186b565b5090979650505050505050565b90815260200190565b602080825260169082015275496e73756666696369656e74206c697175696469747960501b604082015260600190565b60208082526010908201526f4964656e746963616c20746f6b656e7360801b604082015260600190565b6020808252600d908201526c496e76616c69642052616e676560981b604082015260600190565b6020808252600d908201526c496e76616c6964207469636b7360981b604082015260600190565b9586526020860194909452604085019290925260608401526001600160a01b0390811660808401521660a082015260c00190565b600080821280156001600160ff1b038490038513161561199b5761199b611ad5565b600160ff1b83900384128116156119b4576119b4611ad5565b50500190565b60006001600160801b038083168185168083038211156119dc576119dc611ad5565b01949350505050565b600082198211156119f8576119f8611ad5565b500190565b600082611a1857634e487b7160e01b81526012600452602481fd5b500490565b6000816000190483118215151615611a3757611a37611ad5565b500290565b60008083128015600160ff1b850184121615611a5a57611a5a611ad5565b6001600160ff1b0384018313811615611a7557611a75611ad5565b50500390565b60006001600160801b0383811690831681811015611a9b57611a9b611ad5565b039392505050565b600082821015611ab557611ab5611ad5565b500390565b6000600019821415611ace57611ace611ad5565b5060010190565b634e487b7160e01b600052601160045260246000fd5b8015158114611af957600080fd5b5056fea26469706673582212207baa2c7d8ef973a1a9027454044daa716db235c185a672e7ebb25dd0463be3ed64736f6c63430008000033","linkReferences":{}},"methodIdentifiers":{"addLiquidity(bytes32,uint256,uint256,uint128,bool)":"a0eb0c60","collectFees(bytes32)":"817db73b","createPool(address,address)":"e3433615","feePercent()":"7fd6f15c","getAllPools()":"d88ff1f4","getLiquidityConcentration(bytes32,bool)":"03f1f074","getPool(bytes32)":"f6c00927","getPoolIds()":"b4f2bb6d","poolIds(uint256)":"69883b4e","pools(bytes32)":"b5217bb4","removeLiquidity(bytes32,uint128,bool)":"3a6aef5a","swap(bytes32,uint256,bool)":"bac49e70"},"id":26}