{"abi":[{"type":"function","name":"ARRAY_SIZE","inputs":[],"outputs":[{"name":"","type":"uint256","internalType":"uint256"}],"stateMutability":"view"},{"type":"function","name":"addLiquidity","inputs":[{"name":"poolId","type":"bytes32","internalType":"bytes32"},{"name":"tick1","type":"uint256","internalType":"uint256"},{"name":"tick2","type":"uint256","internalType":"uint256"},{"name":"amount","type":"uint128","internalType":"uint128"},{"name":"isToken0","type":"bool","internalType":"bool"}],"outputs":[],"stateMutability":"nonpayable"},{"type":"function","name":"collectFees","inputs":[{"name":"poolId","type":"bytes32","internalType":"bytes32"}],"outputs":[],"stateMutability":"nonpayable"},{"type":"function","name":"createPool","inputs":[{"name":"token0","type":"address","internalType":"address"},{"name":"token1","type":"address","internalType":"address"}],"outputs":[{"name":"poolId","type":"bytes32","internalType":"bytes32"}],"stateMutability":"nonpayable"},{"type":"function","name":"feePercent","inputs":[],"outputs":[{"name":"","type":"uint256","internalType":"uint256"}],"stateMutability":"view"},{"type":"function","name":"getLiquidityConcentration","inputs":[{"name":"poolId","type":"bytes32","internalType":"bytes32"},{"name":"isToken0","type":"bool","internalType":"bool"}],"outputs":[{"name":"concentrations","type":"int256[]","internalType":"int256[]"}],"stateMutability":"view"},{"type":"function","name":"getPool","inputs":[{"name":"poolId","type":"bytes32","internalType":"bytes32"}],"outputs":[{"name":"totalLiquidity0","type":"uint256","internalType":"uint256"},{"name":"totalLiquidity1","type":"uint256","internalType":"uint256"},{"name":"feeGrowthGlobal0","type":"uint256","internalType":"uint256"},{"name":"feeGrowthGlobal1","type":"uint256","internalType":"uint256"},{"name":"token0","type":"address","internalType":"address"},{"name":"token1","type":"address","internalType":"address"}],"stateMutability":"view"},{"type":"function","name":"pools","inputs":[{"name":"","type":"bytes32","internalType":"bytes32"}],"outputs":[{"name":"totalLiquidity0","type":"uint256","internalType":"uint256"},{"name":"totalLiquidity1","type":"uint256","internalType":"uint256"},{"name":"feeGrowthGlobal0","type":"uint256","internalType":"uint256"},{"name":"feeGrowthGlobal1","type":"uint256","internalType":"uint256"},{"name":"token0","type":"address","internalType":"address"},{"name":"token1","type":"address","internalType":"address"}],"stateMutability":"view"},{"type":"function","name":"removeLiquidity","inputs":[{"name":"poolId","type":"bytes32","internalType":"bytes32"},{"name":"amount","type":"uint128","internalType":"uint128"},{"name":"isToken0","type":"bool","internalType":"bool"}],"outputs":[],"stateMutability":"nonpayable"},{"type":"function","name":"swap","inputs":[{"name":"poolId","type":"bytes32","internalType":"bytes32"},{"name":"amountIn","type":"uint256","internalType":"uint256"},{"name":"zeroForOne","type":"bool","internalType":"bool"}],"outputs":[],"stateMutability":"nonpayable"}],"bytecode":{"object":"0x6080604052610bb860015534801561001657600080fd5b5061155c806100266000396000f3fe608060405234801561001057600080fd5b506004361061009e5760003560e01c8063a0eb0c6011610066578063a0eb0c6014610111578063b5217bb414610124578063bac49e7014610149578063e34336151461015c578063f6c009271461016f5761009e565b806303f1f074146100a3578063245c7ee6146100cc5780633a6aef5a146100e15780637fd6f15c146100f6578063817db73b146100fe575b600080fd5b6100b66100b13660046110f5565b610182565b6040516100c39190611295565b60405180910390f35b6100d46101fb565b6040516100c391906112d9565b6100f46100ef366004611124565b610202565b005b6100d461060b565b6100f461010c3660046110dd565b610611565b6100f461011f366004611190565b6107a8565b6101376101323660046110dd565b610bc5565b6040516100c39695949392919061138a565b6100f4610157366004611163565b610c0a565b6100d461016a366004611088565b610e7e565b61013761017d3660046110dd565b610fae565b6000828152602081905260409020606090826101a157806001016101a3565b805b8054806020026020016040519081016040528092919081815260200182805480156101ed57602002820191906000526020600020905b8154815260200190600101908083116101d9575b505050505091505092915050565b620186a181565b6000838152602081815260408083203384526004810190925290912080546001600160801b03808616911610156102545760405162461bcd60e51b815260040161024b906112e2565b60405180910390fd5b60008160010154826002015461026a91906114e8565b61027590600161142a565b9050600061028c826001600160801b038816611442565b905084156103d75760018301546000908152600285016020526040812080548392906102b9908490611481565b9250508190555080846002016000856002015460016102d8919061142a565b815260200190815260200160002060000160008282546102f891906113be565b92505081905550856001600160801b031684600501600082825461031c91906114e8565b90915550506001830154845482918691811061034857634e487b7160e01b600052603260045260246000fd5b9060005260206000200160008282546103619190611481565b90915550506002830154620186a19061037b90600161142a565b10156103d25760028301548190859061039590600161142a565b815481106103b357634e487b7160e01b600052603260045260246000fd5b9060005260206000200160008282546103cc91906113be565b90915550505b61051a565b60018301546000908152600385016020526040812080548392906103fc908490611481565b92505081905550808460030160008560020154600161041b919061142a565b8152602001908152602001600020600001600082825461043b91906113be565b92505081905550856001600160801b031684600601600082825461045f91906114e8565b92505081905550808460010184600101548154811061048e57634e487b7160e01b600052603260045260246000fd5b9060005260206000200160008282546104a79190611481565b90915550506002830154620186a1906104c190600161142a565b101561051a578084600101846002015460016104dd919061142a565b815481106104fb57634e487b7160e01b600052603260045260246000fd5b90600052602060002001600082825461051491906113be565b90915550505b8254869084906000906105379084906001600160801b03166114c0565b92506101000a8154816001600160801b0302191690836001600160801b031602179055508461057357600a8401546001600160a01b0316610582565b60098401546001600160a01b03165b6001600160a01b031663a9059cbb33886040518363ffffffff1660e01b81526004016105af92919061125a565b602060405180830381600087803b1580156105c957600080fd5b505af11580156105dd573d6000803e3d6000fd5b505050506040513d601f19601f8201168201806040525081019061060191906110ba565b5050505050505050565b60015481565b6000818152602081815260408083203384526004810190925282206005820154600783015482549394929361064f91906001600160801b0316611462565b6106599190611442565b60068401546008850154845492935060009261067e91906001600160801b0316611462565b6106889190611442565b60078501546003850155600985015460405163a9059cbb60e01b81529192506001600160a01b03169063a9059cbb906106c7903390869060040161127c565b602060405180830381600087803b1580156106e157600080fd5b505af11580156106f5573d6000803e3d6000fd5b505050506040513d601f19601f8201168201806040525081019061071991906110ba565b50600a84015460405163a9059cbb60e01b81526001600160a01b039091169063a9059cbb9061074e903390859060040161127c565b602060405180830381600087803b15801561076857600080fd5b505af115801561077c573d6000803e3d6000fd5b505050506040513d601f19601f820116820180604052508101906107a091906110ba565b505050505050565b8284106107c75760405162461bcd60e51b815260040161024b90611363565b6000858152602081905260408120906107e086866114e8565b6107eb90600161142a565b90506000811161080d5760405162461bcd60e51b815260040161024b9061133c565b6000816001610825826001600160801b03891661142a565b61082f91906114e8565b6108399190611442565b90508315610969576000878152600284016020526040812080548392906108619084906113be565b9091555081905060028401600061087989600161142a565b815260200190815260200160002060000160008282546108999190611481565b92505081905550846001600160801b03168360050160008282546108bd919061142a565b9091555050825481908490899081106108e657634e487b7160e01b600052603260045260246000fd5b9060005260206000200160008282546108ff91906113be565b90915550620186a1905061091487600161142a565b101561096457808361092788600161142a565b8154811061094557634e487b7160e01b600052603260045260246000fd5b90600052602060002001600082825461095e9190611481565b90915550505b610a93565b6000878152600384016020526040812080548392906109899084906113be565b909155508190506003840160006109a189600161142a565b815260200190815260200160002060000160008282546109c19190611481565b92505081905550846001600160801b03168360060160008282546109e5919061142a565b9250508190555080836001018881548110610a1057634e487b7160e01b600052603260045260246000fd5b906000526020600020016000828254610a2991906113be565b90915550620186a19050610a3e87600161142a565b1015610a93578083600101876001610a56919061142a565b81548110610a7457634e487b7160e01b600052603260045260246000fd5b906000526020600020016000828254610a8d9190611481565b90915550505b3360009081526004840160205260408120805490918791839190610ac19084906001600160801b03166113ff565b92506101000a8154816001600160801b0302191690836001600160801b0316021790555087816001018190555086816002018190555084610b06578360080154610b0c565b83600701545b600382015584610b2957600a8401546001600160a01b0316610b38565b60098401546001600160a01b03165b6001600160a01b03166323b872dd3330896040518463ffffffff1660e01b8152600401610b679392919061120a565b602060405180830381600087803b158015610b8157600080fd5b505af1158015610b95573d6000803e3d6000fd5b505050506040513d601f19601f82011682018060405250810190610bb991906110ba565b50505050505050505050565b600060208190529081526040902060058101546006820154600783015460088401546009850154600a9095015493949293919290916001600160a01b03918216911686565b60008381526020819052604081209082610c3157600a8201546001600160a01b0316610c40565b60098201546001600160a01b03165b9050600083610c5c5760098301546001600160a01b0316610c6b565b600a8301546001600160a01b03165b90506000620f424060015487610c819190611462565b610c8b9190611442565b90506000610c9982886114e8565b9050600086610cac578560060154610cb2565b85600501545b9050600087610cc5578660050154610ccb565b86600601545b9050600082118015610cdd5750600081115b610cf95760405162461bcd60e51b815260040161024b906112e2565b600082610d068386611462565b610d109190611442565b90508815610d45576005880154610d279086611442565b886007016000828254610d3a919061142a565b90915550610d6d9050565b6006880154610d549086611442565b886008016000828254610d67919061142a565b90915550505b6040516323b872dd60e01b81526001600160a01b038816906323b872dd90610d9d90339030908f90600401611236565b602060405180830381600087803b158015610db757600080fd5b505af1158015610dcb573d6000803e3d6000fd5b505050506040513d601f19601f82011682018060405250810190610def91906110ba565b5060405163a9059cbb60e01b81526001600160a01b0387169063a9059cbb90610e1e903390859060040161127c565b602060405180830381600087803b158015610e3857600080fd5b505af1158015610e4c573d6000803e3d6000fd5b505050506040513d601f19601f82011682018060405250810190610e7091906110ba565b505050505050505050505050565b6000816001600160a01b0316836001600160a01b03161415610eb25760405162461bcd60e51b815260040161024b90611312565b8282604051602001610ec59291906111e3565b60408051601f198184030181528282528051602091820120620186a18085526230d4408501909352935082016230d420803683375050506000828152602081815260409091208251610f1d9391929190910190610ff5565b5060408051620186a18082526230d440820190925290602082016230d420803683375050506000828152602081815260409091208251610f67936001909201929190910190610ff5565b5060008181526020819052604090206009810180546001600160a01b039586166001600160a01b031991821617909155600a90910180549390941692169190911790915590565b600090815260208190526040902060058101546006820154600783015460088401546009850154600a9095015493959294919390926001600160a01b039283169290911690565b828054828255906000526020600020908101928215611030579160200282015b82811115611030578251825591602001919060010190611015565b5061103c929150611040565b5090565b5b8082111561103c5760008155600101611041565b80356001600160a01b038116811461106c57600080fd5b919050565b80356001600160801b038116811461106c57600080fd5b6000806040838503121561109a578182fd5b6110a383611055565b91506110b160208401611055565b90509250929050565b6000602082840312156110cb578081fd5b81516110d681611515565b9392505050565b6000602082840312156110ee578081fd5b5035919050565b60008060408385031215611107578182fd5b82359150602083013561111981611515565b809150509250929050565b600080600060608486031215611138578081fd5b8335925061114860208501611071565b9150604084013561115881611515565b809150509250925092565b600080600060608486031215611177578283fd5b8335925060208401359150604084013561115881611515565b600080600080600060a086880312156111a7578081fd5b8535945060208601359350604086013592506111c560608701611071565b915060808601356111d581611515565b809150509295509295909350565b6bffffffffffffffffffffffff19606093841b811682529190921b16601482015260280190565b6001600160a01b0393841681529190921660208201526001600160801b03909116604082015260600190565b6001600160a01b039384168152919092166020820152604081019190915260600190565b6001600160a01b039290921682526001600160801b0316602082015260400190565b6001600160a01b03929092168252602082015260400190565b6020808252825182820181905260009190848201906040850190845b818110156112cd578351835292840192918401916001016112b1565b50909695505050505050565b90815260200190565b602080825260169082015275496e73756666696369656e74206c697175696469747960501b604082015260600190565b60208082526010908201526f4964656e746963616c20746f6b656e7360801b604082015260600190565b6020808252600d908201526c496e76616c69642052616e676560981b604082015260600190565b6020808252600d908201526c496e76616c6964207469636b7360981b604082015260600190565b9586526020860194909452604085019290925260608401526001600160a01b0390811660808401521660a082015260c00190565b600080821280156001600160ff1b03849003851316156113e0576113e06114ff565b600160ff1b83900384128116156113f9576113f96114ff565b50500190565b60006001600160801b03808316818516808303821115611421576114216114ff565b01949350505050565b6000821982111561143d5761143d6114ff565b500190565b60008261145d57634e487b7160e01b81526012600452602481fd5b500490565b600081600019048311821515161561147c5761147c6114ff565b500290565b60008083128015600160ff1b85018412161561149f5761149f6114ff565b6001600160ff1b03840183138116156114ba576114ba6114ff565b50500390565b60006001600160801b03838116908316818110156114e0576114e06114ff565b039392505050565b6000828210156114fa576114fa6114ff565b500390565b634e487b7160e01b600052601160045260246000fd5b801515811461152357600080fd5b5056fea2646970667358221220af1587f4f57943acaabfbcaa293b3d6d7938067a1fdfa2f602df069b946bbea564736f6c63430008000033","linkReferences":{}},"methodIdentifiers":{"ARRAY_SIZE()":"245c7ee6","addLiquidity(bytes32,uint256,uint256,uint128,bool)":"a0eb0c60","collectFees(bytes32)":"817db73b","createPool(address,address)":"e3433615","feePercent()":"7fd6f15c","getLiquidityConcentration(bytes32,bool)":"03f1f074","getPool(bytes32)":"f6c00927","pools(bytes32)":"b5217bb4","removeLiquidity(bytes32,uint128,bool)":"3a6aef5a","swap(bytes32,uint256,bool)":"bac49e70"},"id":0}