{"abi":[{"type":"constructor","inputs":[],"stateMutability":"nonpayable"},{"type":"function","name":"cancelListing","inputs":[{"name":"listingId","type":"uint256","internalType":"uint256"}],"outputs":[],"stateMutability":"nonpayable"},{"type":"function","name":"getListings","inputs":[],"outputs":[{"name":"","type":"tuple[]","internalType":"struct EduMarketplace.Listing[]","components":[{"name":"listingId","type":"uint256","internalType":"uint256"},{"name":"seller","type":"address","internalType":"address"},{"name":"token","type":"address","internalType":"address"},{"name":"amount","type":"uint256","internalType":"uint256"},{"name":"pricePerToken","type":"uint256","internalType":"uint256"},{"name":"active","type":"bool","internalType":"bool"}]}],"stateMutability":"view"},{"type":"function","name":"listToken","inputs":[{"name":"token","type":"address","internalType":"address"},{"name":"amount","type":"uint256","internalType":"uint256"},{"name":"pricePerToken","type":"uint256","internalType":"uint256"}],"outputs":[],"stateMutability":"nonpayable"},{"type":"function","name":"listingCounter","inputs":[],"outputs":[{"name":"","type":"uint256","internalType":"uint256"}],"stateMutability":"view"},{"type":"function","name":"listings","inputs":[{"name":"","type":"uint256","internalType":"uint256"}],"outputs":[{"name":"listingId","type":"uint256","internalType":"uint256"},{"name":"seller","type":"address","internalType":"address"},{"name":"token","type":"address","internalType":"address"},{"name":"amount","type":"uint256","internalType":"uint256"},{"name":"pricePerToken","type":"uint256","internalType":"uint256"},{"name":"active","type":"bool","internalType":"bool"}],"stateMutability":"view"},{"type":"function","name":"owner","inputs":[],"outputs":[{"name":"","type":"address","internalType":"address"}],"stateMutability":"view"},{"type":"function","name":"purchaseToken","inputs":[{"name":"listingId","type":"uint256","internalType":"uint256"},{"name":"paymentToken","type":"address","internalType":"address"},{"name":"paymentAmount","type":"uint256","internalType":"uint256"}],"outputs":[],"stateMutability":"nonpayable"},{"type":"function","name":"renounceOwnership","inputs":[],"outputs":[],"stateMutability":"nonpayable"},{"type":"function","name":"transferOwnership","inputs":[{"name":"newOwner","type":"address","internalType":"address"}],"outputs":[],"stateMutability":"nonpayable"},{"type":"function","name":"withdrawTokens","inputs":[{"name":"token","type":"address","internalType":"address"}],"outputs":[],"stateMutability":"nonpayable"},{"type":"event","name":"Listed","inputs":[{"name":"listingId","type":"uint256","indexed":true,"internalType":"uint256"},{"name":"seller","type":"address","indexed":true,"internalType":"address"},{"name":"token","type":"address","indexed":true,"internalType":"address"},{"name":"amount","type":"uint256","indexed":false,"internalType":"uint256"},{"name":"pricePerToken","type":"uint256","indexed":false,"internalType":"uint256"}],"anonymous":false},{"type":"event","name":"ListingCancelled","inputs":[{"name":"listingId","type":"uint256","indexed":true,"internalType":"uint256"}],"anonymous":false},{"type":"event","name":"OwnershipTransferred","inputs":[{"name":"previousOwner","type":"address","indexed":true,"internalType":"address"},{"name":"newOwner","type":"address","indexed":true,"internalType":"address"}],"anonymous":false},{"type":"event","name":"Purchase","inputs":[{"name":"listingId","type":"uint256","indexed":true,"internalType":"uint256"},{"name":"buyer","type":"address","indexed":true,"internalType":"address"},{"name":"token","type":"address","indexed":true,"internalType":"address"},{"name":"amount","type":"uint256","indexed":false,"internalType":"uint256"},{"name":"totalCost","type":"uint256","indexed":false,"internalType":"uint256"}],"anonymous":false}],"bytecode":{"object":"0x608060405234801561001057600080fd5b5061001a33610024565b6000600255610074565b600080546001600160a01b038381166001600160a01b0319831681178455604051919092169283917f8be0079c531659141344cd1fd0a4f28419497f9722a3daafe3b4186f6b6457e09190a35050565b610fea806100836000396000f3fe608060405234801561001057600080fd5b506004361061009e5760003560e01c80638da5cb5b116100665780638da5cb5b146101045780639b60cc9714610119578063de74e57b1461012c578063f1b2d6a314610151578063f2fde38b146101665761009e565b8063305a67a8146100a357806349df728c146100b85780636c2c9c7d146100cb578063715018a6146100e95780637e07590d146100f1575b600080fd5b6100b66100b1366004610bf6565b610179565b005b6100b66100c6366004610b83565b6102ad565b6100d36103fd565b6040516100e09190610f17565b60405180910390f35b6100b6610403565b6100b66100ff366004610ba4565b610439565b61010c6106f2565b6040516100e09190610c5a565b6100b6610127366004610c26565b610701565b61013f61013a366004610bf6565b6108de565b6040516100e096959493929190610f20565b610159610923565b6040516100e09190610cc5565b6100b6610174366004610b83565b610a71565b6000818152600160208190526040909120908101546001600160a01b031633146101be5760405162461bcd60e51b81526004016101b590610d91565b60405180910390fd5b600581015460ff166101e25760405162461bcd60e51b81526004016101b590610e4e565b60028101546001820154600383015460405163a9059cbb60e01b81526001600160a01b039384169363a9059cbb9361021f93911691600401610cac565b602060405180830381600087803b15801561023957600080fd5b505af115801561024d573d6000803e3d6000fd5b505050506040513d601f19601f820116820180604052508101906102719190610bd6565b5060058101805460ff1916905560405182907f411aee90354c51b1b04cd563fcab2617142a9d50da19232d888547c8a1b7fd8a90600090a25050565b6000546001600160a01b031633146102d75760405162461bcd60e51b81526004016101b590610eab565b6040516370a0823160e01b81526000906001600160a01b038316906370a0823190610306903090600401610c5a565b60206040518083038186803b15801561031e57600080fd5b505afa158015610332573d6000803e3d6000fd5b505050506040513d601f19601f820116820180604052508101906103569190610c0e565b9050600081116103785760405162461bcd60e51b81526004016101b590610e1f565b60405163a9059cbb60e01b81526001600160a01b0383169063a9059cbb906103a69033908590600401610cac565b602060405180830381600087803b1580156103c057600080fd5b505af11580156103d4573d6000803e3d6000fd5b505050506040513d601f19601f820116820180604052508101906103f89190610bd6565b505050565b60025481565b6000546001600160a01b0316331461042d5760405162461bcd60e51b81526004016101b590610eab565b6104376000610acd565b565b6040516370a0823160e01b815282906001600160a01b038516906370a0823190610467903390600401610c5a565b60206040518083038186803b15801561047f57600080fd5b505afa158015610493573d6000803e3d6000fd5b505050506040513d601f19601f820116820180604052508101906104b79190610c0e565b10156104d55760405162461bcd60e51b81526004016101b590610ee0565b604051636eb1769f60e11b815282906001600160a01b0385169063dd62ed3e906105059033903090600401610c6e565b60206040518083038186803b15801561051d57600080fd5b505afa158015610531573d6000803e3d6000fd5b505050506040513d601f19601f820116820180604052508101906105559190610c0e565b10156105735760405162461bcd60e51b81526004016101b590610dd7565b6040516323b872dd60e01b81526001600160a01b038416906323b872dd906105a390339030908790600401610c88565b602060405180830381600087803b1580156105bd57600080fd5b505af11580156105d1573d6000803e3d6000fd5b505050506040513d601f19601f820116820180604052508101906105f59190610bd6565b506040805160c081018252600280548083523360208085018281526001600160a01b038a8116878901818152606089018c815260808a018c8152600160a08c0181815260009a8b5297819052988c90209a518b559451978a0180546001600160a01b031990811699861699909917905590518989018054909816931692909217909555516003870155516004860155516005909401805460ff191694151594909417909355905492519092907f723f73331eaee88eec7fc68ef60ab6ed15e4b90d0472b55eb92fa43910bab6dd906106d09087908790610f56565b60405180910390a4600280549060006106e883610f83565b9190505550505050565b6000546001600160a01b031690565b6000838152600160205260409020600581015460ff166107335760405162461bcd60e51b81526004016101b590610e4e565b806003015481600401546107479190610f64565b8210156107665760405162461bcd60e51b81526004016101b590610e7d565b60018101546040516323b872dd60e01b81526001600160a01b03808616926323b872dd9261079c92339216908790600401610c88565b602060405180830381600087803b1580156107b657600080fd5b505af11580156107ca573d6000803e3d6000fd5b505050506040513d601f19601f820116820180604052508101906107ee9190610bd6565b506002810154600382015460405163a9059cbb60e01b81526001600160a01b039092169163a9059cbb9161082791339190600401610cac565b602060405180830381600087803b15801561084157600080fd5b505af1158015610855573d6000803e3d6000fd5b505050506040513d601f19601f820116820180604052508101906108799190610bd6565b5060058101805460ff19169055600281015460038201546040516001600160a01b0390921691339187917f13b8657d4ddfa4b81968610296805d8992e82313cd1a08959a3208cc3da3fed0916108d0918890610f56565b60405180910390a450505050565b60016020819052600091825260409091208054918101546002820154600383015460048401546005909401546001600160a01b03938416949390921692909160ff1686565b6060600060025467ffffffffffffffff81111561095057634e487b7160e01b600052604160045260246000fd5b60405190808252806020026020018201604052801561098957816020015b610976610b1d565b81526020019060019003908161096e5790505b5090506000805b600254811015610a695760008181526001602052604090206005015460ff1615610a5757600081815260016020818152604092839020835160c08101855281548152928101546001600160a01b0390811692840192909252600281015490911692820192909252600382015460608201526004820154608082015260059091015460ff16151560a08201528351849084908110610a3d57634e487b7160e01b600052603260045260246000fd5b60200260200101819052508180610a5390610f83565b9250505b80610a6181610f83565b915050610990565b509091505090565b6000546001600160a01b03163314610a9b5760405162461bcd60e51b81526004016101b590610eab565b6001600160a01b038116610ac15760405162461bcd60e51b81526004016101b590610d4b565b610aca81610acd565b50565b600080546001600160a01b038381166001600160a01b0319831681178455604051919092169283917f8be0079c531659141344cd1fd0a4f28419497f9722a3daafe3b4186f6b6457e09190a35050565b6040518060c001604052806000815260200160006001600160a01b0316815260200160006001600160a01b0316815260200160008152602001600081526020016000151581525090565b80356001600160a01b0381168114610b7e57600080fd5b919050565b600060208284031215610b94578081fd5b610b9d82610b67565b9392505050565b600080600060608486031215610bb8578182fd5b610bc184610b67565b95602085013595506040909401359392505050565b600060208284031215610be7578081fd5b81518015158114610b9d578182fd5b600060208284031215610c07578081fd5b5035919050565b600060208284031215610c1f578081fd5b5051919050565b600080600060608486031215610c3a578283fd5b83359250610c4a60208501610b67565b9150604084013590509250925092565b6001600160a01b0391909116815260200190565b6001600160a01b0392831681529116602082015260400190565b6001600160a01b039384168152919092166020820152604081019190915260600190565b6001600160a01b03929092168252602082015260400190565b602080825282518282018190526000919060409081850190868401855b82811015610d3e57815180518552868101516001600160a01b0390811688870152868201511686860152606080820151908601526080808201519086015260a09081015115159085015260c09093019290850190600101610ce2565b5091979650505050505050565b60208082526026908201527f4f776e61626c653a206e6577206f776e657220697320746865207a65726f206160408201526564647265737360d01b606082015260800190565b60208082526026908201527f4f6e6c79207468652073656c6c65722063616e2063616e63656c20746865206c604082015265697374696e6760d01b606082015260800190565b60208082526028908201527f4d61726b6574706c616365206e6f7420617070726f76656420746f207370656e6040820152676420746f6b656e7360c01b606082015260800190565b6020808252601590820152744e6f20746f6b656e7320746f20776974686472617760581b604082015260600190565b6020808252601590820152744c697374696e67206973206e6f742061637469766560581b604082015260600190565b602080825260149082015273125b9cdd59999a58da595b9d081c185e5b595b9d60621b604082015260600190565b6020808252818101527f4f776e61626c653a2063616c6c6572206973206e6f7420746865206f776e6572604082015260600190565b6020808252601a908201527f496e73756666696369656e7420746f6b656e2062616c616e6365000000000000604082015260600190565b90815260200190565b9586526001600160a01b03948516602087015292909316604085015260608401526080830191909152151560a082015260c00190565b918252602082015260400190565b6000816000190483118215151615610f7e57610f7e610f9e565b500290565b6000600019821415610f9757610f97610f9e565b5060010190565b634e487b7160e01b600052601160045260246000fdfea2646970667358221220de7307c7ac3466cdf81598d42bd56bb97eaa6613f36c393a181a8b0a5c857d4664736f6c63430008000033","linkReferences":{}},"methodIdentifiers":{"cancelListing(uint256)":"305a67a8","getListings()":"f1b2d6a3","listToken(address,uint256,uint256)":"7e07590d","listingCounter()":"6c2c9c7d","listings(uint256)":"de74e57b","owner()":"8da5cb5b","purchaseToken(uint256,address,uint256)":"9b60cc97","renounceOwnership()":"715018a6","transferOwnership(address)":"f2fde38b","withdrawTokens(address)":"49df728c"},"id":27}