{"abi":[{"type":"constructor","inputs":[],"stateMutability":"nonpayable"},{"type":"function","name":"cancelListing","inputs":[{"name":"listingId","type":"uint256","internalType":"uint256"}],"outputs":[],"stateMutability":"nonpayable"},{"type":"function","name":"getListings","inputs":[],"outputs":[{"name":"","type":"tuple[]","internalType":"struct EduMarketplace.Listing[]","components":[{"name":"seller","type":"address","internalType":"address"},{"name":"token","type":"address","internalType":"address"},{"name":"amount","type":"uint256","internalType":"uint256"},{"name":"pricePerToken","type":"uint256","internalType":"uint256"},{"name":"active","type":"bool","internalType":"bool"}]}],"stateMutability":"view"},{"type":"function","name":"listToken","inputs":[{"name":"token","type":"address","internalType":"address"},{"name":"amount","type":"uint256","internalType":"uint256"},{"name":"pricePerToken","type":"uint256","internalType":"uint256"}],"outputs":[],"stateMutability":"nonpayable"},{"type":"function","name":"listingCounter","inputs":[],"outputs":[{"name":"","type":"uint256","internalType":"uint256"}],"stateMutability":"view"},{"type":"function","name":"listings","inputs":[{"name":"","type":"uint256","internalType":"uint256"}],"outputs":[{"name":"seller","type":"address","internalType":"address"},{"name":"token","type":"address","internalType":"address"},{"name":"amount","type":"uint256","internalType":"uint256"},{"name":"pricePerToken","type":"uint256","internalType":"uint256"},{"name":"active","type":"bool","internalType":"bool"}],"stateMutability":"view"},{"type":"function","name":"owner","inputs":[],"outputs":[{"name":"","type":"address","internalType":"address"}],"stateMutability":"view"},{"type":"function","name":"purchaseToken","inputs":[{"name":"listingId","type":"uint256","internalType":"uint256"},{"name":"paymentToken","type":"address","internalType":"address"},{"name":"paymentAmount","type":"uint256","internalType":"uint256"}],"outputs":[],"stateMutability":"nonpayable"},{"type":"function","name":"renounceOwnership","inputs":[],"outputs":[],"stateMutability":"nonpayable"},{"type":"function","name":"transferOwnership","inputs":[{"name":"newOwner","type":"address","internalType":"address"}],"outputs":[],"stateMutability":"nonpayable"},{"type":"function","name":"withdrawTokens","inputs":[{"name":"token","type":"address","internalType":"address"}],"outputs":[],"stateMutability":"nonpayable"},{"type":"event","name":"Listed","inputs":[{"name":"listingId","type":"uint256","indexed":true,"internalType":"uint256"},{"name":"seller","type":"address","indexed":true,"internalType":"address"},{"name":"token","type":"address","indexed":true,"internalType":"address"},{"name":"amount","type":"uint256","indexed":false,"internalType":"uint256"},{"name":"pricePerToken","type":"uint256","indexed":false,"internalType":"uint256"}],"anonymous":false},{"type":"event","name":"ListingCancelled","inputs":[{"name":"listingId","type":"uint256","indexed":true,"internalType":"uint256"}],"anonymous":false},{"type":"event","name":"OwnershipTransferred","inputs":[{"name":"previousOwner","type":"address","indexed":true,"internalType":"address"},{"name":"newOwner","type":"address","indexed":true,"internalType":"address"}],"anonymous":false},{"type":"event","name":"Purchase","inputs":[{"name":"listingId","type":"uint256","indexed":true,"internalType":"uint256"},{"name":"buyer","type":"address","indexed":true,"internalType":"address"},{"name":"token","type":"address","indexed":true,"internalType":"address"},{"name":"amount","type":"uint256","indexed":false,"internalType":"uint256"},{"name":"totalCost","type":"uint256","indexed":false,"internalType":"uint256"}],"anonymous":false}],"bytecode":{"object":"0x608060405234801561001057600080fd5b5061001a33610024565b6000600255610074565b600080546001600160a01b038381166001600160a01b0319831681178455604051919092169283917f8be0079c531659141344cd1fd0a4f28419497f9722a3daafe3b4186f6b6457e09190a35050565b610f94806100836000396000f3fe608060405234801561001057600080fd5b506004361061009e5760003560e01c80638da5cb5b116100665780638da5cb5b146101045780639b60cc9714610119578063de74e57b1461012c578063f1b2d6a314610150578063f2fde38b146101655761009e565b8063305a67a8146100a357806349df728c146100b85780636c2c9c7d146100cb578063715018a6146100e95780637e07590d146100f1575b600080fd5b6100b66100b1366004610baf565b610178565b005b6100b66100c6366004610b3c565b6102a4565b6100d36103f4565b6040516100e09190610ef7565b60405180910390f35b6100b66103fa565b6100b66100ff366004610b5d565b610430565b61010c6106da565b6040516100e09190610c13565b6100b6610127366004610bdf565b6106e9565b61013f61013a366004610baf565b6108c3565b6040516100e0959493929190610c65565b610158610902565b6040516100e09190610caf565b6100b6610173366004610b3c565b610a46565b600081815260016020526040902080546001600160a01b031633146101b85760405162461bcd60e51b81526004016101af90610d71565b60405180910390fd5b600481015460ff166101dc5760405162461bcd60e51b81526004016101af90610e2e565b60018101548154600283015460405163a9059cbb60e01b81526001600160a01b039384169363a9059cbb9361021693911691600401610c96565b602060405180830381600087803b15801561023057600080fd5b505af1158015610244573d6000803e3d6000fd5b505050506040513d601f19601f820116820180604052508101906102689190610b8f565b5060048101805460ff1916905560405182907f411aee90354c51b1b04cd563fcab2617142a9d50da19232d888547c8a1b7fd8a90600090a25050565b6000546001600160a01b031633146102ce5760405162461bcd60e51b81526004016101af90610e8b565b6040516370a0823160e01b81526000906001600160a01b038316906370a08231906102fd903090600401610c13565b60206040518083038186803b15801561031557600080fd5b505afa158015610329573d6000803e3d6000fd5b505050506040513d601f19601f8201168201806040525081019061034d9190610bc7565b90506000811161036f5760405162461bcd60e51b81526004016101af90610dff565b60405163a9059cbb60e01b81526001600160a01b0383169063a9059cbb9061039d9033908590600401610c96565b602060405180830381600087803b1580156103b757600080fd5b505af11580156103cb573d6000803e3d6000fd5b505050506040513d601f19601f820116820180604052508101906103ef9190610b8f565b505050565b60025481565b6000546001600160a01b031633146104245760405162461bcd60e51b81526004016101af90610e8b565b61042e6000610aa2565b565b6040516370a0823160e01b815282906001600160a01b038516906370a082319061045e903390600401610c13565b60206040518083038186803b15801561047657600080fd5b505afa15801561048a573d6000803e3d6000fd5b505050506040513d601f19601f820116820180604052508101906104ae9190610bc7565b10156104cc5760405162461bcd60e51b81526004016101af90610ec0565b604051636eb1769f60e11b815282906001600160a01b0385169063dd62ed3e906104fc9033903090600401610c27565b60206040518083038186803b15801561051457600080fd5b505afa158015610528573d6000803e3d6000fd5b505050506040513d601f19601f8201168201806040525081019061054c9190610bc7565b101561056a5760405162461bcd60e51b81526004016101af90610db7565b6040516323b872dd60e01b81526001600160a01b038416906323b872dd9061059a90339030908790600401610c41565b602060405180830381600087803b1580156105b457600080fd5b505af11580156105c8573d6000803e3d6000fd5b505050506040513d601f19601f820116820180604052508101906105ec9190610b8f565b506040805160a081018252338082526001600160a01b0386811660208085018281528587018981526060870189815260016080890181815260028054600090815296839052958b902099518a546001600160a01b0319908116918a16919091178b559451918a0180549095169190971617909255518683015551600386015591516004909401805460ff191694151594909417909355549251919290917f723f73331eaee88eec7fc68ef60ab6ed15e4b90d0472b55eb92fa43910bab6dd906106b89087908790610f00565b60405180910390a4600280549060006106d083610f2d565b9190505550505050565b6000546001600160a01b031690565b6000838152600160205260409020600481015460ff1661071b5760405162461bcd60e51b81526004016101af90610e2e565b8060020154816003015461072f9190610f0e565b82101561074e5760405162461bcd60e51b81526004016101af90610e5d565b80546040516323b872dd60e01b81526001600160a01b03808616926323b872dd9261078192339216908790600401610c41565b602060405180830381600087803b15801561079b57600080fd5b505af11580156107af573d6000803e3d6000fd5b505050506040513d601f19601f820116820180604052508101906107d39190610b8f565b506001810154600282015460405163a9059cbb60e01b81526001600160a01b039092169163a9059cbb9161080c91339190600401610c96565b602060405180830381600087803b15801561082657600080fd5b505af115801561083a573d6000803e3d6000fd5b505050506040513d601f19601f8201168201806040525081019061085e9190610b8f565b5060048101805460ff19169055600181015460028201546040516001600160a01b0390921691339187917f13b8657d4ddfa4b81968610296805d8992e82313cd1a08959a3208cc3da3fed0916108b5918890610f00565b60405180910390a450505050565b6001602081905260009182526040909120805491810154600282015460038301546004909301546001600160a01b039485169490921692909160ff1685565b6060600060025467ffffffffffffffff81111561092f57634e487b7160e01b600052604160045260246000fd5b60405190808252806020026020018201604052801561096857816020015b610955610af2565b81526020019060019003908161094d5790505b5090506000805b600254811015610a3e5760008181526001602052604090206004015460ff1615610a2c57600081815260016020818152604092839020835160a08101855281546001600160a01b03908116825293820154909316918301919091526002810154928201929092526003820154606082015260049091015460ff16151560808201528351849084908110610a1257634e487b7160e01b600052603260045260246000fd5b60200260200101819052508180610a2890610f2d565b9250505b80610a3681610f2d565b91505061096f565b509091505090565b6000546001600160a01b03163314610a705760405162461bcd60e51b81526004016101af90610e8b565b6001600160a01b038116610a965760405162461bcd60e51b81526004016101af90610d2b565b610a9f81610aa2565b50565b600080546001600160a01b038381166001600160a01b0319831681178455604051919092169283917f8be0079c531659141344cd1fd0a4f28419497f9722a3daafe3b4186f6b6457e09190a35050565b6040805160a08101825260008082526020820181905291810182905260608101829052608081019190915290565b80356001600160a01b0381168114610b3757600080fd5b919050565b600060208284031215610b4d578081fd5b610b5682610b20565b9392505050565b600080600060608486031215610b71578182fd5b610b7a84610b20565b95602085013595506040909401359392505050565b600060208284031215610ba0578081fd5b81518015158114610b56578182fd5b600060208284031215610bc0578081fd5b5035919050565b600060208284031215610bd8578081fd5b5051919050565b600080600060608486031215610bf3578283fd5b83359250610c0360208501610b20565b9150604084013590509250925092565b6001600160a01b0391909116815260200190565b6001600160a01b0392831681529116602082015260400190565b6001600160a01b039384168152919092166020820152604081019190915260600190565b6001600160a01b03958616815293909416602084015260408301919091526060820152901515608082015260a00190565b6001600160a01b03929092168252602082015260400190565b602080825282518282018190526000919060409081850190868401855b82811015610d1e57815180516001600160a01b03908116865287820151168786015285810151868601526060808201519086015260809081015115159085015260a09093019290850190600101610ccc565b5091979650505050505050565b60208082526026908201527f4f776e61626c653a206e6577206f776e657220697320746865207a65726f206160408201526564647265737360d01b606082015260800190565b60208082526026908201527f4f6e6c79207468652073656c6c65722063616e2063616e63656c20746865206c604082015265697374696e6760d01b606082015260800190565b60208082526028908201527f4d61726b6574706c616365206e6f7420617070726f76656420746f207370656e6040820152676420746f6b656e7360c01b606082015260800190565b6020808252601590820152744e6f20746f6b656e7320746f20776974686472617760581b604082015260600190565b6020808252601590820152744c697374696e67206973206e6f742061637469766560581b604082015260600190565b602080825260149082015273125b9cdd59999a58da595b9d081c185e5b595b9d60621b604082015260600190565b6020808252818101527f4f776e61626c653a2063616c6c6572206973206e6f7420746865206f776e6572604082015260600190565b6020808252601a908201527f496e73756666696369656e7420746f6b656e2062616c616e6365000000000000604082015260600190565b90815260200190565b918252602082015260400190565b6000816000190483118215151615610f2857610f28610f48565b500290565b6000600019821415610f4157610f41610f48565b5060010190565b634e487b7160e01b600052601160045260246000fdfea2646970667358221220c5a60c463440aa6c726ded8b51604e857397233b7d3671d54800181f7a0b46c164736f6c63430008000033","linkReferences":{}},"methodIdentifiers":{"cancelListing(uint256)":"305a67a8","getListings()":"f1b2d6a3","listToken(address,uint256,uint256)":"7e07590d","listingCounter()":"6c2c9c7d","listings(uint256)":"de74e57b","owner()":"8da5cb5b","purchaseToken(uint256,address,uint256)":"9b60cc97","renounceOwnership()":"715018a6","transferOwnership(address)":"f2fde38b","withdrawTokens(address)":"49df728c"},"id":26}