{"abi":[{"type":"constructor","inputs":[{"name":"name","type":"string","internalType":"string"},{"name":"symbol","type":"string","internalType":"string"},{"name":"_initialSupply","type":"uint256","internalType":"uint256"}],"stateMutability":"nonpayable"},{"type":"function","name":"allowance","inputs":[{"name":"owner","type":"address","internalType":"address"},{"name":"spender","type":"address","internalType":"address"}],"outputs":[{"name":"","type":"uint256","internalType":"uint256"}],"stateMutability":"view"},{"type":"function","name":"approve","inputs":[{"name":"spender","type":"address","internalType":"address"},{"name":"amount","type":"uint256","internalType":"uint256"}],"outputs":[{"name":"","type":"bool","internalType":"bool"}],"stateMutability":"nonpayable"},{"type":"function","name":"balanceOf","inputs":[{"name":"account","type":"address","internalType":"address"}],"outputs":[{"name":"","type":"uint256","internalType":"uint256"}],"stateMutability":"view"},{"type":"function","name":"burn","inputs":[{"name":"amount","type":"uint256","internalType":"uint256"}],"outputs":[{"name":"","type":"bool","internalType":"bool"}],"stateMutability":"nonpayable"},{"type":"function","name":"decimals","inputs":[],"outputs":[{"name":"","type":"uint8","internalType":"uint8"}],"stateMutability":"view"},{"type":"function","name":"mint","inputs":[{"name":"to","type":"address","internalType":"address"},{"name":"amount","type":"uint256","internalType":"uint256"}],"outputs":[{"name":"","type":"bool","internalType":"bool"}],"stateMutability":"nonpayable"},{"type":"function","name":"mint","inputs":[{"name":"amount","type":"uint256","internalType":"uint256"}],"outputs":[],"stateMutability":"nonpayable"},{"type":"function","name":"name","inputs":[],"outputs":[{"name":"","type":"string","internalType":"string"}],"stateMutability":"view"},{"type":"function","name":"symbol","inputs":[],"outputs":[{"name":"","type":"string","internalType":"string"}],"stateMutability":"view"},{"type":"function","name":"totalSupply","inputs":[],"outputs":[{"name":"","type":"uint256","internalType":"uint256"}],"stateMutability":"view"},{"type":"function","name":"transfer","inputs":[{"name":"to","type":"address","internalType":"address"},{"name":"amount","type":"uint256","internalType":"uint256"}],"outputs":[{"name":"","type":"bool","internalType":"bool"}],"stateMutability":"nonpayable"},{"type":"function","name":"transferFrom","inputs":[{"name":"from","type":"address","internalType":"address"},{"name":"to","type":"address","internalType":"address"},{"name":"amount","type":"uint256","internalType":"uint256"}],"outputs":[{"name":"","type":"bool","internalType":"bool"}],"stateMutability":"nonpayable"},{"type":"event","name":"Approval","inputs":[{"name":"owner","type":"address","indexed":true,"internalType":"address"},{"name":"spender","type":"address","indexed":true,"internalType":"address"},{"name":"value","type":"uint256","indexed":false,"internalType":"uint256"}],"anonymous":false},{"type":"event","name":"Transfer","inputs":[{"name":"from","type":"address","indexed":true,"internalType":"address"},{"name":"to","type":"address","indexed":true,"internalType":"address"},{"name":"value","type":"uint256","indexed":false,"internalType":"uint256"}],"anonymous":false}],"bytecode":{"object":"0x60806040526002805460ff191660121790553480156200001e57600080fd5b5060405162000e9438038062000e94833981016040819052620000419162000241565b82828282600090805190602001906200005c929190620000f0565b50815162000072906001906020850190620000f0565b50600254620000869060ff16600a62000307565b620000929082620003fc565b60038190553360008181526004602052604080822084905551919290917fddf252ad1be2c89b69c2b068fc378daa952ba7f163c4a11628f55a4df523b3ef91620000dc91620002b1565b60405180910390a350505050505062000487565b828054620000fe906200041e565b90600052602060002090601f0160209004810192826200012257600085556200016d565b82601f106200013d57805160ff19168380011785556200016d565b828001600101855582156200016d579182015b828111156200016d57825182559160200191906001019062000150565b506200017b9291506200017f565b5090565b5b808211156200017b576000815560010162000180565b600082601f830112620001a7578081fd5b81516001600160401b0380821115620001c457620001c462000471565b6040516020601f8401601f1916820181018381118382101715620001ec57620001ec62000471565b604052838252858401810187101562000203578485fd5b8492505b8383101562000226578583018101518284018201529182019162000207565b838311156200023757848185840101525b5095945050505050565b60008060006060848603121562000256578283fd5b83516001600160401b03808211156200026d578485fd5b6200027b8783880162000196565b9450602086015191508082111562000291578384fd5b50620002a08682870162000196565b925050604084015190509250925092565b90815260200190565b80825b6001808611620002ce5750620002fe565b818704821115620002e357620002e36200045b565b80861615620002f157918102915b9490941c938002620002bd565b94509492505050565b60006200031860001984846200031f565b9392505050565b600082620003305750600162000318565b816200033f5750600062000318565b8160018114620003585760028114620003635762000397565b600191505062000318565b60ff8411156200037757620003776200045b565b6001841b9150848211156200039057620003906200045b565b5062000318565b5060208310610133831016604e8410600b8410161715620003cf575081810a83811115620003c957620003c96200045b565b62000318565b620003de8484846001620002ba565b808604821115620003f357620003f36200045b565b02949350505050565b60008160001904831182151516156200041957620004196200045b565b500290565b6002810460018216806200043357607f821691505b602082108114156200045557634e487b7160e01b600052602260045260246000fd5b50919050565b634e487b7160e01b600052601160045260246000fd5b634e487b7160e01b600052604160045260246000fd5b6109fd80620004976000396000f3fe608060405234801561001057600080fd5b50600436106100b45760003560e01c806342966c681161007157806342966c681461014757806370a082311461015a57806395d89b411461016d578063a0712d6814610175578063a9059cbb1461018a578063dd62ed3e1461019d576100b4565b806306fdde03146100b9578063095ea7b3146100d757806318160ddd146100f757806323b872dd1461010c578063313ce5671461011f57806340c10f1914610134575b600080fd5b6100c16101b0565b6040516100ce91906107be565b60405180910390f35b6100ea6100e5366004610772565b61023e565b6040516100ce91906107b3565b6100ff6102da565b6040516100ce9190610910565b6100ea61011a366004610737565b6102e0565b61012761045a565b6040516100ce9190610919565b6100ea610142366004610772565b610463565b6100ea61015536600461079b565b6104fb565b6100ff6101683660046106e4565b610599565b6100c16105b4565b61018861018336600461079b565b6105c1565b005b6100ea610198366004610772565b6105cf565b6100ff6101ab366004610705565b6106a2565b600080546101bd90610956565b80601f01602080910402602001604051908101604052809291908181526020018280546101e990610956565b80156102365780601f1061020b57610100808354040283529160200191610236565b820191906000526020600020905b81548152906001019060200180831161021957829003601f168201915b505050505081565b60006001600160a01b03831661026f5760405162461bcd60e51b81526004016102669061083d565b60405180910390fd5b3360008181526005602090815260408083206001600160a01b03881680855292529182902085905590519091907f8c5be1e5ebec7d5bd14f71427d1e84f3dd0314c0f7b2291e5b200ac8c7c3b925906102c9908690610910565b60405180910390a350600192915050565b60035481565b60006001600160a01b0383166103085760405162461bcd60e51b8152600401610266906108d9565b6001600160a01b0384166000908152600460205260409020548211156103405760405162461bcd60e51b815260040161026690610874565b6001600160a01b03841660009081526005602090815260408083203384529091529020548211156103835760405162461bcd60e51b815260040161026690610811565b6001600160a01b038416600090815260046020526040812080548492906103ab90849061093f565b90915550506001600160a01b038316600090815260046020526040812080548492906103d8908490610927565b90915550506001600160a01b03841660009081526005602090815260408083203384529091528120805484929061041090849061093f565b92505081905550826001600160a01b0316846001600160a01b03166000805160206109a8833981519152846040516104489190610910565b60405180910390a35060019392505050565b60025460ff1681565b60006001600160a01b03831661048b5760405162461bcd60e51b8152600401610266906108a2565b816003600082825461049d9190610927565b90915550506001600160a01b038316600090815260046020526040812080548492906104ca908490610927565b90915550506040516001600160a01b038416906000906000805160206109a8833981519152906102c9908690610910565b3360009081526004602052604081205482111561052a5760405162461bcd60e51b815260040161026690610874565b816003600082825461053c919061093f565b9091555050336000908152600460205260408120805484929061056090849061093f565b909155505060405160009033906000805160206109a883398151915290610588908690610910565b60405180910390a35060015b919050565b6001600160a01b031660009081526004602052604090205490565b600180546101bd90610956565b6105cb3382610463565b5050565b60006001600160a01b0383166105f75760405162461bcd60e51b8152600401610266906108d9565b336000908152600460205260409020548211156106265760405162461bcd60e51b815260040161026690610874565b336000908152600460205260408120805484929061064590849061093f565b90915550506001600160a01b03831660009081526004602052604081208054849290610672908490610927565b90915550506040516001600160a01b0384169033906000805160206109a8833981519152906102c9908690610910565b6001600160a01b03918216600090815260056020908152604080832093909416825291909152205490565b80356001600160a01b038116811461059457600080fd5b6000602082840312156106f5578081fd5b6106fe826106cd565b9392505050565b60008060408385031215610717578081fd5b610720836106cd565b915061072e602084016106cd565b90509250929050565b60008060006060848603121561074b578081fd5b610754846106cd565b9250610762602085016106cd565b9150604084013590509250925092565b60008060408385031215610784578182fd5b61078d836106cd565b946020939093013593505050565b6000602082840312156107ac578081fd5b5035919050565b901515815260200190565b6000602080835283518082850152825b818110156107ea578581018301518582016040015282016107ce565b818111156107fb5783604083870101525b50601f01601f1916929092016040019392505050565b602080825260129082015271105b1b1bddd85b98d948195e18d95959195960721b604082015260600190565b6020808252601b908201527f417070726f766520746f20746865207a65726f20616464726573730000000000604082015260600190565b602080825260149082015273496e73756666696369656e742062616c616e636560601b604082015260600190565b60208082526018908201527f4d696e7420746f20746865207a65726f20616464726573730000000000000000604082015260600190565b6020808252601c908201527f5472616e7366657220746f20746865207a65726f206164647265737300000000604082015260600190565b90815260200190565b60ff91909116815260200190565b6000821982111561093a5761093a610991565b500190565b60008282101561095157610951610991565b500390565b60028104600182168061096a57607f821691505b6020821081141561098b57634e487b7160e01b600052602260045260246000fd5b50919050565b634e487b7160e01b600052601160045260246000fdfeddf252ad1be2c89b69c2b068fc378daa952ba7f163c4a11628f55a4df523b3efa26469706673582212206af49097809badc92b67c12ea88b55526ccbe9ae0261f2d6d0269be668b7abf164736f6c63430008000033","linkReferences":{}},"methodIdentifiers":{"allowance(address,address)":"dd62ed3e","approve(address,uint256)":"095ea7b3","balanceOf(address)":"70a08231","burn(uint256)":"42966c68","decimals()":"313ce567","mint(address,uint256)":"40c10f19","mint(uint256)":"a0712d68","name()":"06fdde03","symbol()":"95d89b41","totalSupply()":"18160ddd","transfer(address,uint256)":"a9059cbb","transferFrom(address,address,uint256)":"23b872dd"},"id":29}